{
  "contractName": "ConvertLib",
  "abi": [
    {
      "constant": true,
      "inputs": [
        {
          "name": "amount",
          "type": "uint256"
        },
        {
          "name": "conversionRate",
          "type": "uint256"
        }
      ],
      "name": "convert",
      "outputs": [
        {
          "name": "convertedAmount",
          "type": "uint256"
        }
      ],
      "payable": false,
      "stateMutability": "pure",
      "type": "function"
    },
    {
      "constant": true,
      "inputs": [
        {
          "name": "n1",
          "type": "uint256"
        },
        {
          "name": "n2",
          "type": "uint256"
        }
      ],
      "name": "subtract",
      "outputs": [
        {
          "name": "sum",
          "type": "uint256"
        }
      ],
      "payable": false,
      "stateMutability": "pure",
      "type": "function"
    }
  ],
  "bytecode": "0x610146610030600b82828239805160001a6073146000811461002057610022565bfe5b5030600052607381538281f3fe7300000000000000000000000000000000000000003014608060405260043610610063576000357c0100000000000000000000000000000000000000000000000000000000900463ffffffff1680633ef5e4451461006857806396e4ee3d146100b4575b600080fd5b61009e6004803603604081101561007e57600080fd5b810190808035906020019092919080359060200190929190505050610100565b6040518082815260200191505060405180910390f35b6100ea600480360360408110156100ca57600080fd5b81019080803590602001909291908035906020019092919050505061010d565b6040518082815260200191505060405180910390f35b6000818302905092915050565b600081830290509291505056fea165627a7a72305820ea93fa188c9dd1f95367f3bf590b102435ba1eca93f983608282a75655651c9a0029",
  "source": "pragma solidity >=0.4.25 <0.6.0;\n\nlibrary ConvertLib{\n\tfunction convert(uint amount,uint conversionRate) public pure returns (uint convertedAmount)\n\t{\n\t\treturn amount * conversionRate;\n\t}\n\tfunction subtract(uint n1,uint n2) public pure returns (uint sum)\n\t{\n\t\treturn n1 * n2;\n\t}\n}\n",
  "sourcePath": "/home/liam/git/metacoin/contracts/ConvertLib.sol",
  "compiler": {
    "name": "solc",
    "version": "0.5.0+commit.1d4f565a.Emscripten.clang"
  },
  "schemaVersion": "3.0.9",
  "updatedAt": "2019-05-13T01:49:48.993Z",
  "devdoc": {
    "methods": {}
  },
  "userdoc": {
    "methods": {}
  }
}